S00C00006C6162342E73726563B5
S11300000C942E000C946F050C94DB050C9447069D
S11300100C94B3060C941F070C944B000C94F60D2F
S11300200C944B000C94A40D0C948B070C94F707C0
S11300300C9463080C94CF080C943B090C94A70906
S11300400C94130A0C947F0A0C94EB0A0C94570B2F
S11300500C94C30B0C942F0C0C949B0C11241FBEFA
S1130060CFEFD4E0DEBFCDBF11E0A0E0B1E0E8EB1C
S1130070F3E202C005900D92A437B107D9F724E04A
S1130080A4E7B1E001C01D92AB3CB207E1F70E94C6
S113009041010C94DA110C94000087EB8093E50085
S11300A087E08093E6008FE08093E70080EC809304
S11300B0E4000895ECEEF0E0808186768083EDEE36
S11300C0F0E0808186768083EEEEF0E080818676B3
S11300D080831092F1001092F2001092F3001092BB
S11300E0F6001092F7001092F8001092FB001092A4
S11300F0FC001092FD000895CF93DF939B019FEBCA
S1130100980F9A3128F4805E6630710560F05EC005
S11301109FE9980F9A3108F465C090ED980F9A30D2
S113012008F465C056C0E82FF0E0EE0FFF1FE25858
S1130130FF4F4081518108C0E82FF0E0EE0FFF1F10
S1130140E453FF4F40815181DB01A170BB2760FF65
S113015002C070EF01C07FE0F901FF230CF4319677
S1130160F595E795E451FF4F21E030E0672F609566
S1130170C72FC979DC2FD09503C02F5F3F4F359629
S1130180842F8F70109711F08295807F2130310574
S113019061F490819D238C23892B80835295429511
S11301A04F7045275F704527E8CF908196238723BA
S11301B0892B8083529542954F7045275F70452760
S11301C024303105D4F280E090E016C08FEF9FEF29
S11301D013C08FEF9FEF10C08FEF9FEF0DC08FEF15
S11301E09FEF0AC06630710508F49DCFF5CF6630E5
S11301F0710508F4A1CFF3CFDF91CF910895CF9289
S1130200DF92EF92FF92CF93DF936B017C01EA01BF
S113021024E630E040E050E00E943E112AE030E065
S113022040E050E00E943E11BE0180E3820F0E9434
S11302307C008F3F2FEF920771F02196C701B60122
S11302402AE030E040E050E00E943E11862FBE01DB
S1130250805D0E947C00DF91CF91FF90EF90DF9052
S1130260CF90089585B1806D85B98EB18C608EB9BB
S113027080EC8DBB80ED80936C008CE080936B00F0
S113028008950E944D000E9432010E945A0041E0EC
S11302906BE373E080E091E00E94081142E06BEDB3
S11302A072E080E091E00E94081140E050E06DEAC5
S11302B072E087E091E00E9422110895FC016483BA
S11302C08091EC008979672B11F090E601C096E0EB
S11302D0892B8093EC0080E090E00895CF92DF9228
S11302E0EF92FF920F931F93CF93DF93FC0121852D
S11302F03285232B89F16B01EC01E481F0E0EE0FF0
S1130300FF1FE80FF91F41E050E061ED73E08581C4
S113031096810E94BC0FBC018C81882319F044E0B3
S113032050E002C040E050E0072E000C880B990B0F
S11303300E94FF000F2EFEE6EF2EF1E0FF2EF02DBF
S11303408E0120E030E0A90165E37CE080E090E0EC
S11303500E94AB0E9A87898780E090E0DF91CF916D
S11303601F910F91FF90EF90DF90CF900895CF925F
S1130370DF92EF92FF920F931F93CF93DF93FC01D1
S113038021853285232B89F16B01EC01E481F0E0B6
S1130390EE0FFF1FE80FF91F41E050E062E074E048
S11303A0858196810E94BC0FBC018C81882319F041
S11303B044E050E002C040E050E0072E000C880BFF
S11303C0990B0E94FF000F2EF7EBEF2EF1E0FF2EAA
S11303D0F02D8E0120E030E0A90165E37CE080E0AF
S11303E090E00E94AB0E9A87898780E090E0DF91CD
S11303F0CF911F910F91FF90EF90DF90CF900895D0
S1130400CF93DF93EC01EC81F0E0EE0FFF1FE80FD8
S1130410F91F40E050E060E374E0858196810E941A
S1130420BC0FBC018C81882319F044E050E002C069
S113043040E050E0072E000C880B990B0E94FF004F
S113044080E090E0DF91CF910895CF92DF92EF9218
S1130450FF920F931F93CF93DF93EC016B01EC8119
S1130460F0E0EE0FFF1FE80FF91F41E050E061EDEF
S113047073E0858196810E94BC0FBC018C81882326
S113048019F044E050E002C040E050E0072E000CB8
S1130490880B990B0E94FF000F2EFEE6EF2EF1E071
S11304A0FF2EF02D8E0120E030E0A90162E17AE711
S11304B080E090E00E94AB0E9A87898780E090E00C
S11304C0DF91CF911F910F91FF90EF90DF90CF902C
S11304D00895CF92DF92EF92FF920F931F93CF93E1
S11304E0DF93EC016B01EC81F0E0EE0FFF1FE80FEE
S11304F0F91F41E050E062E074E0858196810E943A
S1130500BC0FBC018C81882319F044E050E002C088
S113051040E050E0072E000C880B990B0E94FF006E
S11305200F2EF7EBEF2EF1E0FF2EF02D8E0120E0E1
S113053030E0A90162E17AE780E090E00E94AB0E2E
S11305409A87898780E090E0DF91CF911F910F9186
S1130550FF90EF90DF90CF900895CF92DF92EF92CB
S1130560FF920F931F93C12CD12C0F2EFEE5EF2E7B
S1130570F1E0FF2EF02D8C0120E030E0A90160E0D5
S113058070E0CB010E94AB0E40E050E060E070E010
S1130590CB010E94FF0044E050E060E070E0CB013A
S11305A00E94FF0080E090E01F910F91FF90EF9078
S11305B0DF90CF900895CF92DF92EF92FF920F9346
S11305C01F93CF93DF93EC0183B188239CF00C81BC
S11305D01D81C12CD12C0F2EF9E6EF2EF2E0FF2E57
S11305E0F02D20E030E0A90160E070E0CB010E9432
S11305F0AB0E36C086FD13C00C811D81C12CD12CDD
S11306000F2EF5E2EF2EF2E0FF2EF02D20E030E089
S1130610A90160E070E0CB010E94AB0E21C084FD13
S113062013C00C811D81C12CD12C0F2EF0E0EF2EB4
S1130630F2E0FF2EF02D20E030E0A90160E070E050
S1130640CB010E94AB0E0CC0EC81FD8181859285AB
S1130650009731F00E94B710EC81FD81128611865B
S113066080E090E0DF91CF911F910F91FF90EF9088
S1130670DF90CF900895CF92DF92EF92FF920F9385
S11306801F93FC019CB192FD13C004811581C12C00
S1130690D12C0F2EFEE5EF2EF1E0FF2EF02D20E001
S11306A030E0A90160E070E0CB010E94AB0E15C000
S11306B093FD13C004811581CC24C394D12C0F2E37
S11306C0FEE5EF2EF1E0FF2EF02D20E030E0A90151
S11306D060E070E0CB010E94AB0E80E090E01F91DF
S11306E00F91FF90EF90DF90CF900895CF92DF921B
S11306F0EF92FF920F931F93CF93DF93FC0124811A
S1130700222309F443C0EC01C680D12C0781108553
S11307100F2EF0E7EF2EF4E0FF2EF02D20E030E076
S1130720A90160E070E0CB010E94AB0E2C8130E0A7
S113073040E050E060E472E48FE090E00E943E11FB
S11307405695479537952795ADE7B0E00E945D1122
S113075096958795779567959695879577956795F7
S113076028EE33E040E050E00E943E11CA01B90196
S1130770C12CD12C0F2EF6E7EF2EF3E0FF2EF02D37
S11307808E0120E030E0A9010E94AB0E80E090E0F1
S1130790DF91CF911F910F91FF90EF90DF90CF9059
S11307A00895CF92DF92EF92FF920F931F93CF930E
S11307B0DF93EC018C81811111C0C12CD12C0F2E3F
S11307C0F6E7EF2EF3E0FF2EF02D8E0120E030E06F
S11307D0A90160E070E0CB010E94AB0E2C81822F56
S11307E090E001968436910514F42F5F2C838C815C
S11307F090E0DF91CF911F910F91FF90EF90DF90E8
S1130800CF900895CF92DF92EF92FF920F931F93B0
S1130810CF93DF93EC018C81813091F4CE80D12C85
S11308200F8118850F2EF6E7EF2EF4E0FF2EF02D42
S113083020E030E0A90160E070E0CB010E94AB0E43
S11308408C81882311F081508C838C8190E0DF911E
S1130850CF911F910F91FF90EF90DF90CF9008956B
S1130860CF92DF92EF92FF920F931F93CF93DF9378
S1130870EC018C81811115C08D818C831D82C12C6A
S1130880D12C0F2EF6E7EF2EF3E0FF2EF02D8E0184
S113089020E030E0A90160E070E0CB010E94AB0EE3
S11308A014C08D831C82CE80D12C0F8118850F2E0D
S11308B0F6E7EF2EF4E0FF2EF02D20E030E0A90162
S11308C060E070E0CB010E94AB0E8C8190E0DF9180
S11308D0CF911F910F91FF90EF90DF90CF900895EB
S11308E08EB168276EB980E090E008958EB160956E
S11308F068236EB980E090E00895FB01A081B18186
S11309001097F1F0A817B90711F411C0DF01ED91A8
S1130910FC9111973097B9F08E179F07B9F716C05D
S1130920808191818D939C9381E090E00895FD01F5
S113093080819181FB019183808381E090E008951F
S113094080E090E0089580E090E00895109741F7EA
S1130950EFCFCF93DF9300D000D0CDB7DEB78BE6D7
S113096092E02BE433E0FC017097918380834096FE
S113097082179307C1F710923C0310923B03E6EAF7
S1130980F1E083EC91E09183808380EE91E0968F97
S1130990858FADEFB1E0B3AFA2AF1D921C92FA8385
S11309A0E983E7EAF3E0FC83EB8389819A81069685
S11309B00E9499118B819C81E981FA81978B868BA6
S11309C0918F808F89E490E1948F838F15821482B4
S11309D07D96FA83E983EB81FC81E05AFF4FFC8327
S11309E0EB8389819A818A519240F9F6EEE3F2E031
S11309F0118210821582148213821282E1E6F0E0E1
S1130A0080E880831082109285001092840084E034
S1130A108093810081E080936F000F900F900F907E
S1130A200F90DF91CF910895CF93DF9300D0CDB78E
S1130A30DEB79A83898380912401909125010696DB
S1130A400E949911892B59F489819A8190932501E7
S1130A508093240161E070E006960E94B9110F9022
S1130A600F90DF91CF9108950F931F93CF93DF934E
S1130A70E0918001F0918101309761F1809128012A
S1130A8090912901009731F1C0912601D09127015D
S1130A90AA81BB81109779F0468157816085718561
S1130AA016960D911D912D913C911997401B510B58
S1130AB0620B730B7AF4FC0120813181309329019C
S1130AC020932801D183C08390932701809326012A
S1130AD00E941405DF91CF911F910F9108951F92E9
S1130AE00F920FB60F9211242F933F934F935F935E
S1130AF06F937F938F939F93AF93BF93EF93FF93E2
S1130B0020917801309179014091840050918500C1
S1130B10C901032E000CAA0BBB0BDC019927882703
S1130B2060E070E0842B952BA62BB72B80937A0181
S1130B3090937B01A0937C01B0937D01B09B1BC07B
S1130B404091840050918500C9010196092E000C42
S1130B50AA0BBB0BDC019927882760E070E0842B8B
S1130B60952BA62BB72B80937A0190937B01A093AE
S1130B707C01B0937D01E0911A02F0911B02309741
S1130B8039F060E070E080918201909183010995D1
S1130B900E943405FF91EF91BF91AF919F918F9186
S1130BA07F916F915F914F913F912F910F900FBE65
S1130BB00F901F9018951F920F920FB60F92112449
S1130BC02F933F934F935F936F937F938F939F9351
S1130BD0AF93BF93EF93FF93209178013091790104
S1130BE04091840050918500C901032E000CAA0B8A
S1130BF0BB0BDC019927882760E070E0842B952BE0
S1130C00A62BB72B80937A0190937B01A0937C0150
S1130C10B0937D01B09B1BC040918400509185002E
S1130C20C9010196092E000CAA0BBB0BDC01992704
S1130C30882760E070E0842B952BA62BB72B80933C
S1130C407A0190937B01A0937C01B0937D01E091A4
S1130C501C02F0911D02309739F061E070E0809140
S1130C6084019091850109950E943405FF91EF91CB
S1130C70BF91AF919F918F917F916F915F914F91B0
S1130C803F912F910F900FBE0F901F9018951F92B8
S1130C900F920FB60F9211242F933F934F935F93AC
S1130CA06F937F938F939F93AF93BF93EF93FF9330
S1130CB02091780130917901409184005091850010
S1130CC0C901032E000CAA0BBB0BDC019927882752
S1130CD060E070E0842B952BA62BB72B80937A01D0
S1130CE090937B01A0937C01B0937D01B09B1BC0CA
S1130CF04091840050918500C9010196092E000C91
S1130D00AA0BBB0BDC019927882760E070E0842BD9
S1130D10952BA62BB72B80937A0190937B01A093FC
S1130D207C01B0937D01E0911E02F0911F02309787
S1130D3039F062E070E08091860190918701099515
S1130D400E943405FF91EF91BF91AF919F918F91D4
S1130D507F916F915F914F913F912F910F900FBEB3
S1130D600F901F9018951F920F920FB60F92112497
S1130D702F933F934F935F936F937F938F939F939F
S1130D80AF93BF93EF93FF93209178013091790152
S1130D904091840050918500C901032E000CAA0BD8
S1130DA0BB0BDC019927882760E070E0842B952B2E
S1130DB0A62BB72B80937A0190937B01A0937C019F
S1130DC0B0937D01B09B1BC040918400509185007D
S1130DD0C9010196092E000CAA0BBB0BDC01992753
S1130DE0882760E070E0842B952BA62BB72B80938B
S1130DF07A0190937B01A0937C01B0937D01E091F3
S1130E002002F0912102309739F063E070E0809184
S1130E1088019091890109950E943405FF91EF9111
S1130E20BF91AF919F918F917F916F915F914F91FE
S1130E303F912F910F900FBE0F901F9018951F9206
S1130E400F920FB60F9211242F933F934F935F93FA
S1130E506F937F938F939F93AF93BF93EF93FF937E
S1130E60209178013091790140918400509185005E
S1130E70C901032E000CAA0BBB0BDC0199278827A0
S1130E8060E070E0842B952BA62BB72B80937A011E
S1130E9090937B01A0937C01B0937D01B09B1BC018
S1130EA04091840050918500C9010196092E000CDF
S1130EB0AA0BBB0BDC019927882760E070E0842B28
S1130EC0952BA62BB72B80937A0190937B01A0934B
S1130ED07C01B0937D01E0912202F09123023097CE
S1130EE039F064E070E080918A0190918B0109955A
S1130EF00E943405FF91EF91BF91AF919F918F9123
S1130F007F916F915F914F913F912F910F900FBE01
S1130F100F901F9018951F920F920FB60F921124E5
S1130F202F933F934F935F936F937F938F939F93ED
S1130F30AF93BF93EF93FF932091780130917901A0
S1130F404091840050918500C901032E000CAA0B26
S1130F50BB0BDC019927882760E070E0842B952B7C
S1130F60A62BB72B80937A0190937B01A0937C01ED
S1130F70B0937D01B09B1BC04091840050918500CB
S1130F80C9010196092E000CAA0BBB0BDC019927A1
S1130F90882760E070E0842B952BA62BB72B8093D9
S1130FA07A0190937B01A0937C01B0937D01E09141
S1130FB02402F0912502309739F065E070E08091C9
S1130FC08C0190918D0109950E943405FF91EF9158
S1130FD0BF91AF919F918F917F916F915F914F914D
S1130FE03F912F910F900FBE0F901F9018951F9255
S1130FF00F920FB60F9211242F933F934F935F9349
S11310006F937F938F939F93AF93BF93EF93FF93CC
S113101020917801309179014091840050918500AC
S1131020C901032E000CAA0BBB0BDC0199278827EE
S113103060E070E0842B952BA62BB72B80937A016C
S113104090937B01A0937C01B0937D01B09B1BC066
S11310504091840050918500C9010196092E000C2D
S1131060AA0BBB0BDC019927882760E070E0842B76
S1131070952BA62BB72B80937A0190937B01A09399
S11310807C01B0937D01E0912602F0912702309714
S113109039F066E070E080918E0190918F0109959E
S11310A00E943405FF91EF91BF91AF919F918F9171
S11310B07F916F915F914F913F912F910F900FBE50
S11310C00F901F9018951F920F920FB60F92112434
S11310D02F933F934F935F936F937F938F939F933C
S11310E0AF93BF93EF93FF932091780130917901EF
S11310F04091840050918500C901032E000CAA0B75
S1131100BB0BDC019927882760E070E0842B952BCA
S1131110A62BB72B80937A0190937B01A0937C013B
S1131120B0937D01B09B1BC0409184005091850019
S1131130C9010196092E000CAA0BBB0BDC019927EF
S1131140882760E070E0842B952BA62BB72B809327
S11311507A0190937B01A0937C01B0937D01E0918F
S11311602802F0912902309739F067E070E080910D
S113117090019091910109950E943405FF91EF919E
S1131180BF91AF919F918F917F916F915F914F919B
S11311903F912F910F900FBE0F901F9018951F92A3
S11311A00F920FB60F9211242F933F934F935F9397
S11311B06F937F938F939F93AF93BF93EF93FF931B
S11311C020917801309179014091840050918500FB
S11311D0C901032E000CAA0BBB0BDC01992788273D
S11311E060E070E0842B952BA62BB72B80937A01BB
S11311F090937B01A0937C01B0937D01B09B1BC0B5
S11312004091840050918500C9010196092E000C7B
S1131210AA0BBB0BDC019927882760E070E0842BC4
S1131220952BA62BB72B80937A0190937B01A093E7
S11312307C01B0937D01E0912A02F0912B0230975A
S113124039F068E070E080919201909193010995E2
S11312500E943405FF91EF91BF91AF919F918F91BF
S11312607F916F915F914F913F912F910F900FBE9E
S11312700F901F9018951F920F920FB60F92112482
S11312802F933F934F935F936F937F938F939F938A
S1131290AF93BF93EF93FF9320917801309179013D
S11312A04091840050918500C901032E000CAA0BC3
S11312B0BB0BDC019927882760E070E0842B952B19
S11312C0A62BB72B80937A0190937B01A0937C018A
S11312D0B0937D01B09B1BC0409184005091850068
S11312E0C9010196092E000CAA0BBB0BDC0199273E
S11312F0882760E070E0842B952BA62BB72B809376
S11313007A0190937B01A0937C01B0937D01E091DD
S11313102C02F0912D02309739F069E070E0809151
S113132094019091950109950E943405FF91EF91E4
S1131330BF91AF919F918F917F916F915F914F91E9
S11313403F912F910F900FBE0F901F9018951F92F1
S11313500F920FB60F9211242F933F934F935F93E5
S11313606F937F938F939F93AF93BF93EF93FF9369
S11313702091780130917901409184005091850049
S1131380C901032E000CAA0BBB0BDC01992788278B
S113139060E070E0842B952BA62BB72B80937A0109
S11313A090937B01A0937C01B0937D01B09B1BC003
S11313B04091840050918500C9010196092E000CCA
S11313C0AA0BBB0BDC019927882760E070E0842B13
S11313D0952BA62BB72B80937A0190937B01A09336
S11313E07C01B0937D01E0912E02F0912F023097A1
S11313F039F06AE070E08091960190919701099527
S11314000E943405FF91EF91BF91AF919F918F910D
S11314107F916F915F914F913F912F910F900FBEEC
S11314200F901F9018951F920F920FB60F921124D0
S11314302F933F934F935F936F937F938F939F93D8
S1131440AF93BF93EF93FF9320917801309179018B
S11314504091840050918500C901032E000CAA0B11
S1131460BB0BDC019927882760E070E0842B952B67
S1131470A62BB72B80937A0190937B01A0937C01D8
S1131480B0937D01B09B1BC04091840050918500B6
S1131490C9010196092E000CAA0BBB0BDC0199278C
S11314A0882760E070E0842B952BA62BB72B8093C4
S11314B07A0190937B01A0937C01B0937D01E0912C
S11314C03002F0913102309739F06BE070E0809196
S11314D098019091990109950E943405FF91EF912B
S11314E0BF91AF919F918F917F916F915F914F9138
S11314F03F912F910F900FBE0F901F9018951F9240
S11315000F920FB60F9211242F933F934F935F9333
S11315106F937F938F939F93AF93BF93EF93FF93B7
S11315202091780130917901409184005091850097
S1131530C901032E000CAA0BBB0BDC0199278827D9
S113154060E070E0842B952BA62BB72B80937A0157
S113155090937B01A0937C01B0937D01B09B1BC051
S11315604091840050918500C9010196092E000C18
S1131570AA0BBB0BDC019927882760E070E0842B61
S1131580952BA62BB72B80937A0190937B01A09384
S11315907C01B0937D01E0913202F09133023097E7
S11315A039F06CE070E080919A0190919B0109956B
S11315B00E943405FF91EF91BF91AF919F918F915C
S11315C07F916F915F914F913F912F910F900FBE3B
S11315D00F901F9018951F920F920FB60F9211241F
S11315E02F933F934F935F936F937F938F939F9327
S11315F0AF93BF93EF93FF932091780130917901DA
S11316004091840050918500C901032E000CAA0B5F
S1131610BB0BDC019927882760E070E0842B952BB5
S1131620A62BB72B80937A0190937B01A0937C0126
S1131630B0937D01B09B1BC0409184005091850004
S1131640C9010196092E000CAA0BBB0BDC019927DA
S1131650882760E070E0842B952BA62BB72B809312
S11316607A0190937B01A0937C01B0937D01E0917A
S11316703402F0913502309739F06DE070E08091DA
S11316809C0190919D0109950E943405FF91EF9171
S1131690BF91AF919F918F917F916F915F914F9186
S11316A03F912F910F900FBE0F901F9018951F928E
S11316B00F920FB60F9211242F933F934F935F9382
S11316C06F937F938F939F93AF93BF93EF93FF9306
S11316D020917801309179014091840050918500E6
S11316E0C901032E000CAA0BBB0BDC019927882728
S11316F060E070E0842B952BA62BB72B80937A01A6
S113170090937B01A0937C01B0937D01B09B1BC09F
S11317104091840050918500C9010196092E000C66
S1131720AA0BBB0BDC019927882760E070E0842BAF
S1131730952BA62BB72B80937A0190937B01A093D2
S11317407C01B0937D01E0913602F091370230972D
S113175039F06EE070E080919E0190919F010995AF
S11317600E943405FF91EF91BF91AF919F918F91AA
S11317707F916F915F914F913F912F910F900FBE89
S11317800F901F9018951F920F920FB60F9211246D
S11317902F933F934F935F936F937F938F939F9375
S11317A0AF93BF93EF93FF93209178013091790128
S11317B04091840050918500C901032E000CAA0BAE
S11317C0BB0BDC019927882760E070E0842B952B04
S11317D0A62BB72B80937A0190937B01A0937C0175
S11317E0B0937D01B09B1BC0409184005091850053
S11317F0C9010196092E000CAA0BBB0BDC01992729
S1131800882760E070E0842B952BA62BB72B809360
S11318107A0190937B01A0937C01B0937D01E091C8
S11318203802F0913902309739F06FE070E080911E
S1131830A0019091A10109950E943405FF91EF91B7
S1131840BF91AF919F918F917F916F915F914F91D4
S11318503F912F910F900FBE0F901F9018951F92DC
S11318600F920FB60F9211242F933F934F935F93D0
S11318706F937F938F939F93AF93BF93EF93FF9354
S11318802091780130917901409184005091850034
S1131890C901032E000CAA0BBB0BDC019927882776
S11318A060E070E0842B952BA62BB72B80937A01F4
S11318B090937B01A0937C01B0937D01B09B1BC0EE
S11318C04091840050918500C9010196092E000CB5
S11318D0AA0BBB0BDC019927882760E070E0842BFE
S11318E0952BA62BB72B80937A0190937B01A09321
S11318F07C01B0937D01E0913A02F0913B02309774
S113190039F060E170E08091A2019091A301099502
S11319100E943405FF91EF91BF91AF919F918F91F8
S11319207F916F915F914F913F912F910F900FBED7
S11319300F901F9018951F920F920FB60F921124BB
S11319402F933F934F935F936F937F938F939F93C3
S1131950AF93BF93EF93FF93209178013091790176
S11319604091840050918500C901032E000CAA0BFC
S1131970BB0BDC019927882760E070E0842B952B52
S1131980A62BB72B80937A0190937B01A0937C01C3
S1131990B0937D01B09B1BC04091840050918500A1
S11319A0C9010196092E000CAA0BBB0BDC01992777
S11319B0882760E070E0842B952BA62BB72B8093AF
S11319C07A0190937B01A0937C01B0937D01E09117
S11319D03C02F0913D02309739F061E170E0809172
S11319E0A4019091A50109950E943405FF91EF91FE
S11319F0BF91AF919F918F917F916F915F914F9123
S1131A003F912F910F900FBE0F901F901895EF925A
S1131A10FF920F931F93CF93DF937B01EB01A88178
S1131A20B981109761F1FC01068117812085318508
S1131A3016964D915D916D917C9119970417150738
S1131A402607370714F41BC0DF01ED91FC911197B1
S1131A50309749F0468157816085718504171507D1
S1131A60260737078CF7EC01F983E883109721F4F4
S1131A70F7019183808307C08D939C9304C0EC018C
S1131A80B983A883F5CFDF91CF911F910F91FF9078
S1131A90EF900895EF92FF920F931F93CF93DF93EC
S1131AA07B01EB01A881B981109761F1FC010281EE
S1131AB013812481358112964D915D916D917C91B4
S1131AC01597041715072607370714F41BC0DF0101
S1131AD0ED91FC911197309749F0428153816481D3
S1131AE0758104171507260737078CF7EC01F9836E
S1131AF0E883109721F4F7019183808307C08D93C5
S1131B009C9304C0EC01B983A883F5CFDF91CF91F6
S1131B101F910F91FF90EF900895DC01ED91FC91DE
S1131B201197309759F48FEF8093EC008093ED0078
S1131B308093EE0081E083BF8895FDCF20813181C1
S1131B402D933C93CF0108951F920F920FB60F92DD
S1131B5011242F933F934F935F936F937F938F93AE
S1131B609F93EF93FF93809178019091790101966F
S1131B709093790180937801E0917E01F0917F0147
S1131B80309701F1428153816481758186179707EB
S1131B90C9F4CA012091840030918500421B530B83
S1131BA04130510529F4809184009091850001967B
S1131BB09093890080938800EFE6F0E08081826052
S1131BC0808305C0EFE6F0E080818D7F8083FF9104
S1131BD0EF919F918F917F916F915F914F913F9181
S1131BE02F910F900FBE0F901F9018951F920F9278
S1131BF00FB60F921124CF92DF92EF92FF922F93A0
S1131C003F934F935F936F937F938F939F93AF9380
S1131C10BF93EF93FF93C0907801D0907901209106
S1131C20840030918500B0990FC00D2C000CEE0893
S1131C30FF08D601992788276901E12CF12CC82ACD
S1131C40D92AEA2AFB2A15C0209184003091850004
S1131C508FEFC81AD80A0D2C000CEE08FF08D60125
S1131C60992788276901E12CF12CC82AD92AEA2A64
S1131C70FB2AE0917E01F0917F01309709F442C084
S1131C8082819381A481B5818C199D09AE09BF0914
S1131C90181619061A061B06ECF18EE791E00E944D
S1131CA08D0D60E871E00E94070DE0917E01F091D6
S1131CB07F01309739F182819381A481B5818C1998
S1131CC09D09AE09BF09181619061A061B062CF73A
S1131CD021C09C014091840050918500841B950B88
S1131CE0019731F420918400309185002F5F3F4F9C
S1131CF03093890020938800EFE6F0E080818260D1
S1131D00808305C0EFE6F0E080818D7F80830E94B0
S1131D1034050CC082819381A481B581209178011E
S1131D20309179012A173B0769F7D3CFFF91EF91DF
S1131D30BF91AF919F918F917F916F915F914F91DF
S1131D403F912F91FF90EF90DF90CF900F900FBEB7
S1131D500F901F9018953F924F925F926F927F92CF
S1131D608F929F92AF92BF92CF92DF92EF92FF92A7
S1131D700F931F93CF93DF932B013C0149015A0129
S1131D808FB78078382EF8948AE291E00E948D0D06
S1131D90EC011B870A87FD86EC86DF86CE8633201E
S1131DA061F0E0912401F09125010280F381E02D9E
S1131DB082819381A481B58108C080917A01909138
S1131DC07B01A0917C01B0917D01480E591E6A1ED1
S1131DD07B1E4A825B826C827D82181419041A0469
S1131DE01B0444F00F2E88248A94982CA82CFFE717
S1131DF0BF2EF02D840C951CA61CB71C8E829F82CE
S1131E00A886B986809178019091790140918400E7
S1131E1050918500B0990EC0092E000CAA0BBB0B83
S1131E20DC019927882760E070E0842B952BA62B92
S1131E30B72B13C020918400309185000196092EA0
S1131E40000CAA0BBB0BDC0199278827A90160E0D1
S1131E5070E0842B952BA62BB72B481A590A6A0AD3
S1131E607B0A1414150416041704ACF56EE771E02C
S1131E70CE010E944A0DE0917E01F0917F013097DE
S1131E8021F182819381A481B581209178013091DF
S1131E9079012A173B07C9F49C01409184005091B1
S1131EA08500841B950B019731F4209184003091B7
S1131EB085002F5F3F4F3093890020938800EFE621
S1131EC0F0E080818260808341C0EFE6F0E08081B1
S1131ED08D7F80833BC060E871E0CE010E94070DD6
S1131EE03320B9F18091280190912901009781F163
S1131EF0E0912601F0912701209180013091810128
S1131F0002811381D90116964D915D916D917C9159
S1131F101997D80116960D911D912D913C91199701
S1131F20401B510B620B730B9AF4DC012D913C9115
S1131F3011973093290120932801ED93FC939093FA
S1131F402701809326010E94140502C0332009F062
S1131F507894CE01DF91CF911F910F91FF90EF9074
S1131F60DF90CF90BF90AF909F908F907F906F90B5
S1131F705F904F903F900895CF92DF92EF92FF923F
S1131F800F931F93CF93DF93EC017B016A011FB77B
S1131F901078F894A881B981109761F11496ED91A5
S1131FA0FC911597309741F0A081B1811496ED9181
S1131FB0FC9115973097C1F72091240130912501A8
S1131FC02A173B0721F0112309F43DC007C0112350
S1131FD009F43CC078948FEF9FEF52C08A819B81B3
S1131FE00097D1F1FC011582148236C0789480E008
S1131FF090E046C0809124019091250199838883C3
S1132000112329F08A819B81019709F07894B60104
S1132010CE01F7010995F82E092F8FB7F89419828C
S113202018828A819B818230910538F01B821A8242
S1132030FC01158214820E941405112351F0789436
S11320408F2D902F1DC08FEF9FEF1AC08FEF9FEF42
S113205017C08F2D902F14C03B832A83F901D58399
S1132060C483CD010E941405E0912401F09125015F
S113207082819381892B09F4B9CFF983E883C2CF94
S1132080DF91CF911F910F91FF90EF90DF90CF9050
S11320900895009124011091250180E891E00E94A7
S11320A08D0DEC01D80113969C938E93129778941E
S11320B04E855F856C857D858A859B850E94BC0FD6
S11320C08FB7F89480912A0190912B01998388838A
S11320D0D0932B01C0932A01E0912601F0912701AE
S11320E000811181E8012A813B81A0918001B09196
S11320F081011097C1F02115310559F216968D9181
S11321009D910D90BC91A02DE9014E815F81688560
S11321107985841B950BA60BB70B181619061A069E
S11321201B060CF0B6CF1093270100932601809173
S113213028019091290191838083F0932901E093F0
S11321402801A0912601B09127011496ED91FC91EC
S11321501597309741F0A081B1811496ED91FC91CF
S113216015973097C1F7CD010E94140592CF1F93A4
S1132170CF93DF93EC011FB71078F8946EE771E00A
S11321800E947D04892B39F460E871E0CE010E943D
S11321907D04892B59F080912A0190912B01998318
S11321A08883D0932B01C0932A012BC0E091260190
S11321B0F0912701309729F12091240130912501D4
S11321C02E173F07C9F082819381C817D907A1F45C
S11321D0448155818A859B854817590769F4138280
S11321E0128280912A0190912B0199838883D09344
S11321F02B01C0932A0105C00190F081E02D309796
S1132200F9F6112309F07894DF91CF911F91089585
S11322104231B8F42FB7F89450E0440F551FFA0137
S1132220EE57FE4F91838083FA01E65EFD4F718382
S1132230608341E050E0FC015383428322230CF489
S1132240789408958C017B016A018FB7F8940E94F9
S1132250A9047894E114F10441F020E030E0A901EC
S113226060E070E0CB010E94AB0E8FB7F8940E943F
S11322703405789481E083BF8895FDCF052E97FBC4
S11322801EF400940E94551157FD07D00E94681156
S113229007FC03D04EF40C9455115095409530959D
S11322A021953F4F4F4F5F4F0895909580957095BE
S11322B061957F4F8F4F9F4F08950E948A11A59F6C
S11322C0900DB49F900DA49F800D911D112408952D
S11322D0A1E21A2EAA1BBB1BFD010DC0AA1FBB1F26
S11322E0EE1FFF1FA217B307E407F50720F0A21B98
S11322F0B30BE40BF50B661F771F881F991F1A9405
S113230069F760957095809590959B01AC01BD012E
S1132310CF010895A29FB001B39FC001A39F700D88
S1132320811D1124911DB29F700D811D1124911DD9
S11323300895DC012D923D924D925D926D927D92B5
S11323408D929D92AD92BD92CD92DD92ED92FD92D1
S11323500D931D93CD93DD93FF91EF918DB78D93E5
S11323608EB78D938FB78D93ED93FD93882799271F
S11323700994DC01CB0181309105811D2D903D90A4
S11323804D905D906D907D908D909D90AD90BD90A1
S1132390CD90DD90ED90FD900D911D91CD91DD914D
S11323A0ED91FD910D90F894FEBF0FBEEDBFED9140
S10B23B0FD910994F894FFCF9C
S11323B80000000007010000000000001B011201DA
S11323C8000000000000000040740100000000004C
S11323D8001074013E023E02A6015B025955180121
S11323E8111E1119500B411B411F1101511F511B83
S11323F8510F91394114913141164106411D500F35
S11324088130101548864014780570855115510E91
S11324185195518E419281205015484450C528C089
S1072428501B0950E8
S9030000FC
